{
  "_format": "hh-sol-artifact-1",
  "contractName": "DogeSwapV2Router",
  "sourceName": "contracts/DogeSwapV2Router.sol",
  "abi": [
    {
      "inputs": [
        {
          "internalType": "address",
          "name": "_factory",
          "type": "address"
        },
        {
          "internalType": "address",
          "name": "_WWDOGE",
          "type": "address"
        }
      ],
      "stateMutability": "nonpayable",
      "type": "constructor"
    },
    {
      "inputs": [],
      "name": "WWDOGE",
      "outputs": [
        {
          "internalType": "address",
          "name": "",
          "type": "address"
        }
      ],
      "stateMutability": "view",
      "type": "function"
    },
    {
      "inputs": [
        {
          "internalType": "address",
          "name": "tokenA",
          "type": "address"
        },
        {
          "internalType": "address",
          "name": "tokenB",
          "type": "address"
        },
        {
          "internalType": "uint256",
          "name": "amountADesired",
          "type": "uint256"
        },
        {
          "internalType": "uint256",
          "name": "amountBDesired",
          "type": "uint256"
        },
        {
          "internalType": "uint256",
          "name": "amountAMin",
          "type": "uint256"
        },
        {
          "internalType": "uint256",
          "name": "amountBMin",
          "type": "uint256"
        },
        {
          "internalType": "address",
          "name": "to",
          "type": "address"
        },
        {
          "internalType": "uint256",
          "name": "deadline",
          "type": "uint256"
        }
      ],
      "name": "addLiquidity",
      "outputs": [
        {
          "internalType": "uint256",
          "name": "amountA",
          "type": "uint256"
        },
        {
          "internalType": "uint256",
          "name": "amountB",
          "type": "uint256"
        },
        {
          "internalType": "uint256",
          "name": "liquidity",
          "type": "uint256"
        }
      ],
      "stateMutability": "nonpayable",
      "type": "function"
    },
    {
      "inputs": [
        {
          "internalType": "address",
          "name": "token",
          "type": "address"
        },
        {
          "internalType": "uint256",
          "name": "amountTokenDesired",
          "type": "uint256"
        },
        {
          "internalType": "uint256",
          "name": "amountTokenMin",
          "type": "uint256"
        },
        {
          "internalType": "uint256",
          "name": "amountWDOGEMin",
          "type": "uint256"
        },
        {
          "internalType": "address",
          "name": "to",
          "type": "address"
        },
        {
          "internalType": "uint256",
          "name": "deadline",
          "type": "uint256"
        }
      ],
      "name": "addLiquidityWDOGE",
      "outputs": [
        {
          "internalType": "uint256",
          "name": "amountToken",
          "type": "uint256"
        },
        {
          "internalType": "uint256",
          "name": "amountWDOGE",
          "type": "uint256"
        },
        {
          "internalType": "uint256",
          "name": "liquidity",
          "type": "uint256"
        }
      ],
      "stateMutability": "payable",
      "type": "function"
    },
    {
      "inputs": [],
      "name": "factory",
      "outputs": [
        {
          "internalType": "address",
          "name": "",
          "type": "address"
        }
      ],
      "stateMutability": "view",
      "type": "function"
    },
    {
      "inputs": [
        {
          "internalType": "uint256",
          "name": "amountOut",
          "type": "uint256"
        },
        {
          "internalType": "uint256",
          "name": "reserveIn",
          "type": "uint256"
        },
        {
          "internalType": "uint256",
          "name": "reserveOut",
          "type": "uint256"
        }
      ],
      "name": "getAmountIn",
      "outputs": [
        {
          "internalType": "uint256",
          "name": "amountIn",
          "type": "uint256"
        }
      ],
      "stateMutability": "pure",
      "type": "function"
    },
    {
      "inputs": [
        {
          "internalType": "uint256",
          "name": "amountIn",
          "type": "uint256"
        },
        {
          "internalType": "uint256",
          "name": "reserveIn",
          "type": "uint256"
        },
        {
          "internalType": "uint256",
          "name": "reserveOut",
          "type": "uint256"
        }
      ],
      "name": "getAmountOut",
      "outputs": [
        {
          "internalType": "uint256",
          "name": "amountOut",
          "type": "uint256"
        }
      ],
      "stateMutability": "pure",
      "type": "function"
    },
    {
      "inputs": [
        {
          "internalType": "uint256",
          "name": "amountOut",
          "type": "uint256"
        },
        {
          "internalType": "address[]",
          "name": "path",
          "type": "address[]"
        }
      ],
      "name": "getAmountsIn",
      "outputs": [
        {
          "internalType": "uint256[]",
          "name": "amounts",
          "type": "uint256[]"
        }
      ],
      "stateMutability": "view",
      "type": "function"
    },
    {
      "inputs": [
        {
          "internalType": "uint256",
          "name": "amountIn",
          "type": "uint256"
        },
        {
          "internalType": "address[]",
          "name": "path",
          "type": "address[]"
        }
      ],
      "name": "getAmountsOut",
      "outputs": [
        {
          "internalType": "uint256[]",
          "name": "amounts",
          "type": "uint256[]"
        }
      ],
      "stateMutability": "view",
      "type": "function"
    },
    {
      "inputs": [
        {
          "internalType": "uint256",
          "name": "amountA",
          "type": "uint256"
        },
        {
          "internalType": "uint256",
          "name": "reserveA",
          "type": "uint256"
        },
        {
          "internalType": "uint256",
          "name": "reserveB",
          "type": "uint256"
        }
      ],
      "name": "quote",
      "outputs": [
        {
          "internalType": "uint256",
          "name": "amountB",
          "type": "uint256"
        }
      ],
      "stateMutability": "pure",
      "type": "function"
    },
    {
      "inputs": [
        {
          "internalType": "address",
          "name": "tokenA",
          "type": "address"
        },
        {
          "internalType": "address",
          "name": "tokenB",
          "type": "address"
        },
        {
          "internalType": "uint256",
          "name": "liquidity",
          "type": "uint256"
        },
        {
          "internalType": "uint256",
          "name": "amountAMin",
          "type": "uint256"
        },
        {
          "internalType": "uint256",
          "name": "amountBMin",
          "type": "uint256"
        },
        {
          "internalType": "address",
          "name": "to",
          "type": "address"
        },
        {
          "internalType": "uint256",
          "name": "deadline",
          "type": "uint256"
        }
      ],
      "name": "removeLiquidity",
      "outputs": [
        {
          "internalType": "uint256",
          "name": "amountA",
          "type": "uint256"
        },
        {
          "internalType": "uint256",
          "name": "amountB",
          "type": "uint256"
        }
      ],
      "stateMutability": "nonpayable",
      "type": "function"
    },
    {
      "inputs": [
        {
          "internalType": "address",
          "name": "token",
          "type": "address"
        },
        {
          "internalType": "uint256",
          "name": "liquidity",
          "type": "uint256"
        },
        {
          "internalType": "uint256",
          "name": "amountTokenMin",
          "type": "uint256"
        },
        {
          "internalType": "uint256",
          "name": "amountWDOGEMin",
          "type": "uint256"
        },
        {
          "internalType": "address",
          "name": "to",
          "type": "address"
        },
        {
          "internalType": "uint256",
          "name": "deadline",
          "type": "uint256"
        }
      ],
      "name": "removeLiquidityWDOGE",
      "outputs": [
        {
          "internalType": "uint256",
          "name": "amountToken",
          "type": "uint256"
        },
        {
          "internalType": "uint256",
          "name": "amountWDOGE",
          "type": "uint256"
        }
      ],
      "stateMutability": "nonpayable",
      "type": "function"
    },
    {
      "inputs": [
        {
          "internalType": "address",
          "name": "token",
          "type": "address"
        },
        {
          "internalType": "uint256",
          "name": "liquidity",
          "type": "uint256"
        },
        {
          "internalType": "uint256",
          "name": "amountTokenMin",
          "type": "uint256"
        },
        {
          "internalType": "uint256",
          "name": "amountWDOGEMin",
          "type": "uint256"
        },
        {
          "internalType": "address",
          "name": "to",
          "type": "address"
        },
        {
          "internalType": "uint256",
          "name": "deadline",
          "type": "uint256"
        }
      ],
      "name": "removeLiquidityWDOGESupportingFeeOnTransferTokens",
      "outputs": [
        {
          "internalType": "uint256",
          "name": "amountWDOGE",
          "type": "uint256"
        }
      ],
      "stateMutability": "nonpayable",
      "type": "function"
    },
    {
      "inputs": [
        {
          "internalType": "address",
          "name": "token",
          "type": "address"
        },
        {
          "internalType": "uint256",
          "name": "liquidity",
          "type": "uint256"
        },
        {
          "internalType": "uint256",
          "name": "amountTokenMin",
          "type": "uint256"
        },
        {
          "internalType": "uint256",
          "name": "amountWDOGEMin",
          "type": "uint256"
        },
        {
          "internalType": "address",
          "name": "to",
          "type": "address"
        },
        {
          "internalType": "uint256",
          "name": "deadline",
          "type": "uint256"
        },
        {
          "internalType": "bool",
          "name": "approveMax",
          "type": "bool"
        },
        {
          "internalType": "uint8",
          "name": "v",
          "type": "uint8"
        },
        {
          "internalType": "bytes32",
          "name": "r",
          "type": "bytes32"
        },
        {
          "internalType": "bytes32",
          "name": "s",
          "type": "bytes32"
        }
      ],
      "name": "removeLiquidityWDOGEWithPermit",
      "outputs": [
        {
          "internalType": "uint256",
          "name": "amountToken",
          "type": "uint256"
        },
        {
          "internalType": "uint256",
          "name": "amountWDOGE",
          "type": "uint256"
        }
      ],
      "stateMutability": "nonpayable",
      "type": "function"
    },
    {
      "inputs": [
        {
          "internalType": "address",
          "name": "token",
          "type": "address"
        },
        {
          "internalType": "uint256",
          "name": "liquidity",
          "type": "uint256"
        },
        {
          "internalType": "uint256",
          "name": "amountTokenMin",
          "type": "uint256"
        },
        {
          "internalType": "uint256",
          "name": "amountWDOGEMin",
          "type": "uint256"
        },
        {
          "internalType": "address",
          "name": "to",
          "type": "address"
        },
        {
          "internalType": "uint256",
          "name": "deadline",
          "type": "uint256"
        },
        {
          "internalType": "bool",
          "name": "approveMax",
          "type": "bool"
        },
        {
          "internalType": "uint8",
          "name": "v",
          "type": "uint8"
        },
        {
          "internalType": "bytes32",
          "name": "r",
          "type": "bytes32"
        },
        {
          "internalType": "bytes32",
          "name": "s",
          "type": "bytes32"
        }
      ],
      "name": "removeLiquidityWDOGEWithPermitSupportingFeeOnTransferTokens",
      "outputs": [
        {
          "internalType": "uint256",
          "name": "amountWDOGE",
          "type": "uint256"
        }
      ],
      "stateMutability": "nonpayable",
      "type": "function"
    },
    {
      "inputs": [
        {
          "internalType": "address",
          "name": "tokenA",
          "type": "address"
        },
        {
          "internalType": "address",
          "name": "tokenB",
          "type": "address"
        },
        {
          "internalType": "uint256",
          "name": "liquidity",
          "type": "uint256"
        },
        {
          "internalType": "uint256",
          "name": "amountAMin",
          "type": "uint256"
        },
        {
          "internalType": "uint256",
          "name": "amountBMin",
          "type": "uint256"
        },
        {
          "internalType": "address",
          "name": "to",
          "type": "address"
        },
        {
          "internalType": "uint256",
          "name": "deadline",
          "type": "uint256"
        },
        {
          "internalType": "bool",
          "name": "approveMax",
          "type": "bool"
        },
        {
          "internalType": "uint8",
          "name": "v",
          "type": "uint8"
        },
        {
          "internalType": "bytes32",
          "name": "r",
          "type": "bytes32"
        },
        {
          "internalType": "bytes32",
          "name": "s",
          "type": "bytes32"
        }
      ],
      "name": "removeLiquidityWithPermit",
      "outputs": [
        {
          "internalType": "uint256",
          "name": "amountA",
          "type": "uint256"
        },
        {
          "internalType": "uint256",
          "name": "amountB",
          "type": "uint256"
        }
      ],
      "stateMutability": "nonpayable",
      "type": "function"
    },
    {
      "inputs": [
        {
          "internalType": "uint256",
          "name": "amountIn",
          "type": "uint256"
        },
        {
          "internalType": "uint256",
          "name": "amountOutMin",
          "type": "uint256"
        },
        {
          "internalType": "address[]",
          "name": "path",
          "type": "address[]"
        },
        {
          "internalType": "address",
          "name": "to",
          "type": "address"
        },
        {
          "internalType": "uint256",
          "name": "deadline",
          "type": "uint256"
        }
      ],
      "name": "swapExactTokensForTokens",
      "outputs": [
        {
          "internalType": "uint256[]",
          "name": "amounts",
          "type": "uint256[]"
        }
      ],
      "stateMutability": "nonpayable",
      "type": "function"
    },
    {
      "inputs": [
        {
          "internalType": "uint256",
          "name": "amountIn",
          "type": "uint256"
        },
        {
          "internalType": "uint256",
          "name": "amountOutMin",
          "type": "uint256"
        },
        {
          "internalType": "address[]",
          "name": "path",
          "type": "address[]"
        },
        {
          "internalType": "address",
          "name": "to",
          "type": "address"
        },
        {
          "internalType": "uint256",
          "name": "deadline",
          "type": "uint256"
        }
      ],
      "name": "swapExactTokensForTokensSupportingFeeOnTransferTokens",
      "outputs": [],
      "stateMutability": "nonpayable",
      "type": "function"
    },
    {
      "inputs": [
        {
          "internalType": "uint256",
          "name": "amountIn",
          "type": "uint256"
        },
        {
          "internalType": "uint256",
          "name": "amountOutMin",
          "type": "uint256"
        },
        {
          "internalType": "address[]",
          "name": "path",
          "type": "address[]"
        },
        {
          "internalType": "address",
          "name": "to",
          "type": "address"
        },
        {
          "internalType": "uint256",
          "name": "deadline",
          "type": "uint256"
        }
      ],
      "name": "swapExactTokensForWDOGE",
      "outputs": [
        {
          "internalType": "uint256[]",
          "name": "amounts",
          "type": "uint256[]"
        }
      ],
      "stateMutability": "nonpayable",
      "type": "function"
    },
    {
      "inputs": [
        {
          "internalType": "uint256",
          "name": "amountIn",
          "type": "uint256"
        },
        {
          "internalType": "uint256",
          "name": "amountOutMin",
          "type": "uint256"
        },
        {
          "internalType": "address[]",
          "name": "path",
          "type": "address[]"
        },
        {
          "internalType": "address",
          "name": "to",
          "type": "address"
        },
        {
          "internalType": "uint256",
          "name": "deadline",
          "type": "uint256"
        }
      ],
      "name": "swapExactTokensForWDOGESupportingFeeOnTransferTokens",
      "outputs": [],
      "stateMutability": "nonpayable",
      "type": "function"
    },
    {
      "inputs": [
        {
          "internalType": "uint256",
          "name": "amountOutMin",
          "type": "uint256"
        },
        {
          "internalType": "address[]",
          "name": "path",
          "type": "address[]"
        },
        {
          "internalType": "address",
          "name": "to",
          "type": "address"
        },
        {
          "internalType": "uint256",
          "name": "deadline",
          "type": "uint256"
        }
      ],
      "name": "swapExactWDOGEForTokens",
      "outputs": [
        {
          "internalType": "uint256[]",
          "name": "amounts",
          "type": "uint256[]"
        }
      ],
      "stateMutability": "payable",
      "type": "function"
    },
    {
      "inputs": [
        {
          "internalType": "uint256",
          "name": "amountOutMin",
          "type": "uint256"
        },
        {
          "internalType": "address[]",
          "name": "path",
          "type": "address[]"
        },
        {
          "internalType": "address",
          "name": "to",
          "type": "address"
        },
        {
          "internalType": "uint256",
          "name": "deadline",
          "type": "uint256"
        }
      ],
      "name": "swapExactWDOGEForTokensSupportingFeeOnTransferTokens",
      "outputs": [],
      "stateMutability": "payable",
      "type": "function"
    },
    {
      "inputs": [
        {
          "internalType": "uint256",
          "name": "amountOut",
          "type": "uint256"
        },
        {
          "internalType": "uint256",
          "name": "amountInMax",
          "type": "uint256"
        },
        {
          "internalType": "address[]",
          "name": "path",
          "type": "address[]"
        },
        {
          "internalType": "address",
          "name": "to",
          "type": "address"
        },
        {
          "internalType": "uint256",
          "name": "deadline",
          "type": "uint256"
        }
      ],
      "name": "swapTokensForExactTokens",
      "outputs": [
        {
          "internalType": "uint256[]",
          "name": "amounts",
          "type": "uint256[]"
        }
      ],
      "stateMutability": "nonpayable",
      "type": "function"
    },
    {
      "inputs": [
        {
          "internalType": "uint256",
          "name": "amountOut",
          "type": "uint256"
        },
        {
          "internalType": "uint256",
          "name": "amountInMax",
          "type": "uint256"
        },
        {
          "internalType": "address[]",
          "name": "path",
          "type": "address[]"
        },
        {
          "internalType": "address",
          "name": "to",
          "type": "address"
        },
        {
          "internalType": "uint256",
          "name": "deadline",
          "type": "uint256"
        }
      ],
      "name": "swapTokensForExactWDOGE",
      "outputs": [
        {
          "internalType": "uint256[]",
          "name": "amounts",
          "type": "uint256[]"
        }
      ],
      "stateMutability": "nonpayable",
      "type": "function"
    },
    {
      "inputs": [
        {
          "internalType": "uint256",
          "name": "amountOut",
          "type": "uint256"
        },
        {
          "internalType": "address[]",
          "name": "path",
          "type": "address[]"
        },
        {
          "internalType": "address",
          "name": "to",
          "type": "address"
        },
        {
          "internalType": "uint256",
          "name": "deadline",
          "type": "uint256"
        }
      ],
      "name": "swapWDOGEForExactTokens",
      "outputs": [
        {
          "internalType": "uint256[]",
          "name": "amounts",
          "type": "uint256[]"
        }
      ],
      "stateMutability": "payable",
      "type": "function"
    },
    {
      "stateMutability": "payable",
      "type": "receive"
    }
  ],
  "bytecode": "0x60c060405234801561001057600080fd5b5060405162004723380380620047238339818101604052604081101561003557600080fd5b5080516020909101516001600160601b0319606092831b8116608052911b1660a05260805160601c60a05160601c61459e620001856000398061015f5280610e285280610edc5280610fb552806110f85280611180528061152c52806115c1528061163552806118d25280611b055280611d4a5280611e255280611eff5280612235528061237b5280612403528061257d528061270d528061283e52806129c75280612a025280612ae35280612b395280612b6d5280612be15280612e86525080610cb35280610cec528061104852806111b2528061136d52806114445280611667528061195e5280611ae35280611c415280611fd352806121cb52806122c85280612435528061260b52806127c852806128cc5280612b175280612d8a5280612e64528061354d528061359052806139c55280613b3b5280613f2c5280613fe55280614098525061459e6000f3fe60806040526004361061014f5760003560e01c8063ad615dec116100b6578063d06ca61f1161006f578063d06ca61f146109c0578063e52c1dc314610a75578063e648d01614610b0b578063e6529ab414610b5e578063e8e3370014610bc2578063f7f0221b14610c2457610188565b8063ad615dec14610768578063b43d9bbb1461079e578063baa2abde14610834578063c45a015514610891578063ceaa45ec146108a6578063ced887041461092a57610188565b8063463513bc11610108578063463513bc146104de5780634ed15460146105625780635c11d795146105935780637bfa83861461062957806385f8c2591461069c5780638803dbee146106d257610188565b8063054d50d41461018d5780631f00ca74146101d55780632195995c146102da578063256383f014610371578063350de20e146103c457806338ed17391461044857610188565b3661018857336001600160a01b037f0000000000000000000000000000000000000000000000000000000000000000161461018657fe5b005b600080fd5b34801561019957600080fd5b506101c3600480360360608110156101b057600080fd5b5080359060208101359060400135610c97565b60408051918252519081900360200190f35b3480156101e157600080fd5b5061028a600480360360408110156101f857600080fd5b81359190810190604081016020820135600160201b81111561021957600080fd5b82018360208201111561022b57600080fd5b803590602001918460208302840111600160201b8311171561024c57600080fd5b919080806020026020016040519081016040528093929190818152602001838360200280828437600092019190915250929550610cac945050505050565b60408051602080825283518183015283519192839290830191858101910280838360005b838110156102c65781810151838201526020016102ae565b505050509050019250505060405180910390f35b3480156102e657600080fd5b5061035860048036036101608110156102fe57600080fd5b506001600160a01b038135811691602081013582169160408201359160608101359160808201359160a08101359091169060c08101359060e081013515159060ff6101008201351690610120810135906101400135610ce2565b6040805192835260208301919091528051918290030190f35b34801561037d57600080fd5b506101c3600480360360c081101561039457600080fd5b506001600160a01b0381358116916020810135916040820135916060810135916080820135169060a00135610ddc565b61028a600480360360808110156103da57600080fd5b81359190810190604081016020820135600160201b8111156103fb57600080fd5b82018360208201111561040d57600080fd5b803590602001918460208302840111600160201b8311171561042e57600080fd5b91935091506001600160a01b038135169060200135610f6d565b34801561045457600080fd5b5061028a600480360360a081101561046b57600080fd5b813591602081013591810190606081016040820135600160201b81111561049157600080fd5b8201836020820111156104a357600080fd5b803590602001918460208302840111600160201b831117156104c457600080fd5b91935091506001600160a01b038135169060200135611322565b610186600480360360808110156104f457600080fd5b81359190810190604081016020820135600160201b81111561051557600080fd5b82018360208201111561052757600080fd5b803590602001918460208302840111600160201b8311171561054857600080fd5b91935091506001600160a01b0381351690602001356114e6565b34801561056e57600080fd5b506105776118d0565b604080516001600160a01b039092168252519081900360200190f35b34801561059f57600080fd5b50610186600480360360a08110156105b657600080fd5b813591602081013591810190606081016040820135600160201b8111156105dc57600080fd5b8201836020820111156105ee57600080fd5b803590602001918460208302840111600160201b8311171561060f57600080fd5b91935091506001600160a01b0381351690602001356118f4565b34801561063557600080fd5b506101c3600480360361014081101561064d57600080fd5b506001600160a01b0381358116916020810135916040820135916060810135916080820135169060a08101359060c081013515159060ff60e08201351690610100810135906101200135611adb565b3480156106a857600080fd5b506101c3600480360360608110156106bf57600080fd5b5080359060208101359060400135611be9565b3480156106de57600080fd5b5061028a600480360360a08110156106f557600080fd5b813591602081013591810190606081016040820135600160201b81111561071b57600080fd5b82018360208201111561072d57600080fd5b803590602001918460208302840111600160201b8311171561074e57600080fd5b91935091506001600160a01b038135169060200135611bf6565b34801561077457600080fd5b506101c36004803603606081101561078b57600080fd5b5080359060208101359060400135611cef565b3480156107aa57600080fd5b50610186600480360360a08110156107c157600080fd5b813591602081013591810190606081016040820135600160201b8111156107e757600080fd5b8201836020820111156107f957600080fd5b803590602001918460208302840111600160201b8311171561081a57600080fd5b91935091506001600160a01b038135169060200135611cfc565b34801561084057600080fd5b50610358600480360360e081101561085757600080fd5b506001600160a01b038135811691602081013582169160408201359160608101359160808201359160a08101359091169060c00135611f85565b34801561089d57600080fd5b506105776121c9565b61028a600480360360808110156108bc57600080fd5b81359190810190604081016020820135600160201b8111156108dd57600080fd5b8201836020820111156108ef57600080fd5b803590602001918460208302840111600160201b8311171561091057600080fd5b91935091506001600160a01b0381351690602001356121ed565b34801561093657600080fd5b5061028a600480360360a081101561094d57600080fd5b813591602081013591810190606081016040820135600160201b81111561097357600080fd5b82018360208201111561098557600080fd5b803590602001918460208302840111600160201b831117156109a657600080fd5b91935091506001600160a01b03813516906020013561252d565b3480156109cc57600080fd5b5061028a600480360360408110156109e357600080fd5b81359190810190604081016020820135600160201b811115610a0457600080fd5b820183602082011115610a1657600080fd5b803590602001918460208302840111600160201b83111715610a3757600080fd5b9190808060200260200160405190810160405280939291908181526020018383602002808284376000920191909152509295506127c1945050505050565b348015610a8157600080fd5b5061028a600480360360a0811015610a9857600080fd5b813591602081013591810190606081016040820135600160201b811115610abe57600080fd5b820183602082011115610ad057600080fd5b803590602001918460208302840111600160201b83111715610af157600080fd5b91935091506001600160a01b0381351690602001356127ee565b348015610b1757600080fd5b50610358600480360360c0811015610b2e57600080fd5b506001600160a01b0381358116916020810135916040820135916060810135916080820135169060a0013561297a565b610ba4600480360360c0811015610b7457600080fd5b506001600160a01b0381358116916020810135916040820135916060810135916080820135169060a00135612a94565b60408051938452602084019290925282820152519081900360600190f35b348015610bce57600080fd5b50610ba46004803603610100811015610be657600080fd5b506001600160a01b038135811691602081013582169160408201359160608101359160808201359160a08101359160c0820135169060e00135612d27565b348015610c3057600080fd5b506103586004803603610140811015610c4857600080fd5b506001600160a01b0381358116916020810135916040820135916060810135916080820135169060a08101359060c081013515159060ff60e08201351690610100810135906101200135612e5a565b6000610ca4848484612f6e565b949350505050565b6060610cd97f00000000000000000000000000000000000000000000000000000000000000008484613046565b90505b92915050565b6000806000610d127f00000000000000000000000000000000000000000000000000000000000000008f8f613193565b9050600087610d21578c610d25565b6000195b6040805163d505accf60e01b815233600482015230602482015260448101839052606481018c905260ff8a16608482015260a4810189905260c4810188905290519192506001600160a01b0384169163d505accf9160e48082019260009290919082900301818387803b158015610d9b57600080fd5b505af1158015610daf573d6000803e3d6000fd5b50505050610dc28f8f8f8f8f8f8f611f85565b809450819550505050509b509b9950505050505050505050565b60008142811015610e22576040805162461bcd60e51b81526020600482015260196024820152600080516020614430833981519152604482015290519081900360640190fd5b610e51887f00000000000000000000000000000000000000000000000000000000000000008989893089611f85565b905080925050610eda88858a6001600160a01b03166370a08231306040518263ffffffff1660e01b815260040180826001600160a01b0316815260200191505060206040518083038186803b158015610ea957600080fd5b505afa158015610ebd573d6000803e3d6000fd5b505050506040513d6020811015610ed357600080fd5b5051613253565b7f00000000000000000000000000000000000000000000000000000000000000006001600160a01b0316632e1a7d4d836040518263ffffffff1660e01b815260040180828152602001915050600060405180830381600087803b158015610f4057600080fd5b505af1158015610f54573d6000803e3d6000fd5b50505050610f6284836133a6565b509695505050505050565b60608142811015610fb3576040805162461bcd60e51b81526020600482015260196024820152600080516020614430833981519152604482015290519081900360640190fd5b7f00000000000000000000000000000000000000000000000000000000000000006001600160a01b031686866000818110610fea57fe5b905060200201356001600160a01b03166001600160a01b031614611043576040805162461bcd60e51b815260206004820152601e6024820152600080516020614450833981519152604482015290519081900360640190fd5b6110a17f00000000000000000000000000000000000000000000000000000000000000008888888080602002602001604051908101604052809392919081815260200183836020028082843760009201919091525061304692505050565b915034826000815181106110b157fe5b602002602001015111156110f65760405162461bcd60e51b81526004018080602001828103825260288152602001806145416028913960400191505060405180910390fd5b7f00000000000000000000000000000000000000000000000000000000000000006001600160a01b031663d0e30db08360008151811061113257fe5b60200260200101516040518263ffffffff1660e01b81526004016000604051808303818588803b15801561116557600080fd5b505af1158015611179573d6000803e3d6000fd5b50505050507f00000000000000000000000000000000000000000000000000000000000000006001600160a01b031663a9059cbb6112107f0000000000000000000000000000000000000000000000000000000000000000898960008181106111de57fe5b905060200201356001600160a01b03168a8a60018181106111fb57fe5b905060200201356001600160a01b0316613193565b8460008151811061121d57fe5b60200260200101516040518363ffffffff1660e01b815260040180836001600160a01b0316815260200182815260200192505050602060405180830381600087803b15801561126b57600080fd5b505af115801561127f573d6000803e3d6000fd5b505050506040513d602081101561129557600080fd5b505161129d57fe5b6112dc8287878080602002602001604051908101604052809392919081815260200183836020028082843760009201919091525089925061349e915050565b816000815181106112e957fe5b602002602001015134111561131857611318338360008151811061130957fe5b602002602001015134036133a6565b5095945050505050565b60608142811015611368576040805162461bcd60e51b81526020600482015260196024820152600080516020614430833981519152604482015290519081900360640190fd5b6113c67f0000000000000000000000000000000000000000000000000000000000000000898888808060200260200160405190810160405280939291908181526020018383602002808284376000920191909152506136db92505050565b915086826001845103815181106113d957fe5b6020026020010151101561141e5760405162461bcd60e51b815260040180806020018281038252602c815260200180614404602c913960400191505060405180910390fd5b6114a78686600081811061142e57fe5b905060200201356001600160a01b03163361148d7f00000000000000000000000000000000000000000000000000000000000000008a8a600081811061147057fe5b905060200201356001600160a01b03168b8b60018181106111fb57fe5b8560008151811061149a57fe5b6020026020010151613812565b610f628287878080602002602001604051908101604052809392919081815260200183836020028082843760009201919091525089925061349e915050565b804281101561152a576040805162461bcd60e51b81526020600482015260196024820152600080516020614430833981519152604482015290519081900360640190fd5b7f00000000000000000000000000000000000000000000000000000000000000006001600160a01b03168585600081811061156157fe5b905060200201356001600160a01b03166001600160a01b0316146115ba576040805162461bcd60e51b815260206004820152601e6024820152600080516020614450833981519152604482015290519081900360640190fd5b60003490507f00000000000000000000000000000000000000000000000000000000000000006001600160a01b031663d0e30db0826040518263ffffffff1660e01b81526004016000604051808303818588803b15801561161a57600080fd5b505af115801561162e573d6000803e3d6000fd5b50505050507f00000000000000000000000000000000000000000000000000000000000000006001600160a01b031663a9059cbb6116937f0000000000000000000000000000000000000000000000000000000000000000898960008181106111de57fe5b836040518363ffffffff1660e01b815260040180836001600160a01b0316815260200182815260200192505050602060405180830381600087803b1580156116da57600080fd5b505af11580156116ee573d6000803e3d6000fd5b505050506040513d602081101561170457600080fd5b505161170c57fe5b60008686600019810181811061171e57fe5b905060200201356001600160a01b03166001600160a01b03166370a08231866040518263ffffffff1660e01b815260040180826001600160a01b0316815260200191505060206040518083038186803b15801561177a57600080fd5b505afa15801561178e573d6000803e3d6000fd5b505050506040513d60208110156117a457600080fd5b505160408051602089810282810182019093528982529293506117e69290918a918a91829185019084908082843760009201919091525089925061396e915050565b8761188982898960001981018181106117fb57fe5b905060200201356001600160a01b03166001600160a01b03166370a08231896040518263ffffffff1660e01b815260040180826001600160a01b0316815260200191505060206040518083038186803b15801561185757600080fd5b505afa15801561186b573d6000803e3d6000fd5b505050506040513d602081101561188157600080fd5b505190613c70565b10156118c65760405162461bcd60e51b815260040180806020018281038252602c815260200180614404602c913960400191505060405180910390fd5b5050505050505050565b7f000000000000000000000000000000000000000000000000000000000000000081565b8042811015611938576040805162461bcd60e51b81526020600482015260196024820152600080516020614430833981519152604482015290519081900360640190fd5b6119908585600081811061194857fe5b905060200201356001600160a01b03163361198a7f0000000000000000000000000000000000000000000000000000000000000000898960008181106111de57fe5b8a613812565b6000858560001981018181106119a257fe5b905060200201356001600160a01b03166001600160a01b03166370a08231856040518263ffffffff1660e01b815260040180826001600160a01b0316815260200191505060206040518083038186803b1580156119fe57600080fd5b505afa158015611a12573d6000803e3d6000fd5b505050506040513d6020811015611a2857600080fd5b50516040805160208881028281018201909352888252929350611a6a92909189918991829185019084908082843760009201919091525088925061396e915050565b866118898288886000198101818110611a7f57fe5b905060200201356001600160a01b03166001600160a01b03166370a08231886040518263ffffffff1660e01b815260040180826001600160a01b0316815260200191505060206040518083038186803b15801561185757600080fd5b600080611b297f00000000000000000000000000000000000000000000000000000000000000008d7f0000000000000000000000000000000000000000000000000000000000000000613193565b9050600086611b38578b611b3c565b6000195b6040805163d505accf60e01b815233600482015230602482015260448101839052606481018b905260ff8916608482015260a4810188905260c4810187905290519192506001600160a01b0384169163d505accf9160e48082019260009290919082900301818387803b158015611bb257600080fd5b505af1158015611bc6573d6000803e3d6000fd5b50505050611bd88d8d8d8d8d8d610ddc565b9d9c50505050505050505050505050565b6000610ca4848484613cc0565b60608142811015611c3c576040805162461bcd60e51b81526020600482015260196024820152600080516020614430833981519152604482015290519081900360640190fd5b611c9a7f00000000000000000000000000000000000000000000000000000000000000008988888080602002602001604051908101604052809392919081815260200183836020028082843760009201919091525061304692505050565b91508682600081518110611caa57fe5b6020026020010151111561141e5760405162461bcd60e51b81526004018080602001828103825260288152602001806145416028913960400191505060405180910390fd5b6000610ca4848484613d98565b8042811015611d40576040805162461bcd60e51b81526020600482015260196024820152600080516020614430833981519152604482015290519081900360640190fd5b6001600160a01b037f00000000000000000000000000000000000000000000000000000000000000001685856000198101818110611d7a57fe5b905060200201356001600160a01b03166001600160a01b031614611dd3576040805162461bcd60e51b815260206004820152601e6024820152600080516020614450833981519152604482015290519081900360640190fd5b611de38585600081811061194857fe5b611e2185858080602002602001604051908101604052809392919081815260200183836020028082843760009201919091525030925061396e915050565b60007f00000000000000000000000000000000000000000000000000000000000000006001600160a01b03166370a08231306040518263ffffffff1660e01b815260040180826001600160a01b0316815260200191505060206040518083038186803b158015611e9057600080fd5b505afa158015611ea4573d6000803e3d6000fd5b505050506040513d6020811015611eba57600080fd5b5051905086811015611efd5760405162461bcd60e51b815260040180806020018281038252602c815260200180614404602c913960400191505060405180910390fd5b7f00000000000000000000000000000000000000000000000000000000000000006001600160a01b0316632e1a7d4d826040518263ffffffff1660e01b815260040180828152602001915050600060405180830381600087803b158015611f6357600080fd5b505af1158015611f77573d6000803e3d6000fd5b505050506118c684826133a6565b6000808242811015611fcc576040805162461bcd60e51b81526020600482015260196024820152600080516020614430833981519152604482015290519081900360640190fd5b6000611ff97f00000000000000000000000000000000000000000000000000000000000000008c8c613193565b604080516323b872dd60e01b81523360048201526001600160a01b03831660248201819052604482018d9052915192935090916323b872dd916064808201926020929091908290030181600087803b15801561205457600080fd5b505af1158015612068573d6000803e3d6000fd5b505050506040513d602081101561207e57600080fd5b50506040805163226bf2d160e21b81526001600160a01b03888116600483015282516000938493928616926389afcb44926024808301939282900301818787803b1580156120cb57600080fd5b505af11580156120df573d6000803e3d6000fd5b505050506040513d60408110156120f557600080fd5b5080516020909101519092509050600061210f8e8e613e3e565b509050806001600160a01b03168e6001600160a01b031614612132578183612135565b82825b90975095508a8710156121795760405162461bcd60e51b81526004018080602001828103825260278152602001806144c46027913960400191505060405180910390fd5b898610156121b85760405162461bcd60e51b815260040180806020018281038252602781526020018061449d6027913960400191505060405180910390fd5b505050505097509795505050505050565b7f000000000000000000000000000000000000000000000000000000000000000081565b60608142811015612233576040805162461bcd60e51b81526020600482015260196024820152600080516020614430833981519152604482015290519081900360640190fd5b7f00000000000000000000000000000000000000000000000000000000000000006001600160a01b03168686600081811061226a57fe5b905060200201356001600160a01b03166001600160a01b0316146122c3576040805162461bcd60e51b815260206004820152601e6024820152600080516020614450833981519152604482015290519081900360640190fd5b6123217f0000000000000000000000000000000000000000000000000000000000000000348888808060200260200160405190810160405280939291908181526020018383602002808284376000920191909152506136db92505050565b9150868260018451038151811061233457fe5b602002602001015110156123795760405162461bcd60e51b815260040180806020018281038252602c815260200180614404602c913960400191505060405180910390fd5b7f00000000000000000000000000000000000000000000000000000000000000006001600160a01b031663d0e30db0836000815181106123b557fe5b60200260200101516040518263ffffffff1660e01b81526004016000604051808303818588803b1580156123e857600080fd5b505af11580156123fc573d6000803e3d6000fd5b50505050507f00000000000000000000000000000000000000000000000000000000000000006001600160a01b031663a9059cbb6124617f0000000000000000000000000000000000000000000000000000000000000000898960008181106111de57fe5b8460008151811061246e57fe5b60200260200101516040518363ffffffff1660e01b815260040180836001600160a01b0316815260200182815260200192505050602060405180830381600087803b1580156124bc57600080fd5b505af11580156124d0573d6000803e3d6000fd5b505050506040513d60208110156124e657600080fd5b50516124ee57fe5b6113188287878080602002602001604051908101604052809392919081815260200183836020028082843760009201919091525089925061349e915050565b60608142811015612573576040805162461bcd60e51b81526020600482015260196024820152600080516020614430833981519152604482015290519081900360640190fd5b6001600160a01b037f000000000000000000000000000000000000000000000000000000000000000016868660001981018181106125ad57fe5b905060200201356001600160a01b03166001600160a01b031614612606576040805162461bcd60e51b815260206004820152601e6024820152600080516020614450833981519152604482015290519081900360640190fd5b6126647f0000000000000000000000000000000000000000000000000000000000000000898888808060200260200160405190810160405280939291908181526020018383602002808284376000920191909152506136db92505050565b9150868260018451038151811061267757fe5b602002602001015110156126bc5760405162461bcd60e51b815260040180806020018281038252602c815260200180614404602c913960400191505060405180910390fd5b6126cc8686600081811061142e57fe5b61270b8287878080602002602001604051908101604052809392919081815260200183836020028082843760009201919091525030925061349e915050565b7f00000000000000000000000000000000000000000000000000000000000000006001600160a01b0316632e1a7d4d8360018551038151811061274a57fe5b60200260200101516040518263ffffffff1660e01b815260040180828152602001915050600060405180830381600087803b15801561278857600080fd5b505af115801561279c573d6000803e3d6000fd5b50505050610f6284836001855103815181106127b457fe5b60200260200101516133a6565b6060610cd97f000000000000000000000000000000000000000000000000000000000000000084846136db565b60608142811015612834576040805162461bcd60e51b81526020600482015260196024820152600080516020614430833981519152604482015290519081900360640190fd5b6001600160a01b037f0000000000000000000000000000000000000000000000000000000000000000168686600019810181811061286e57fe5b905060200201356001600160a01b03166001600160a01b0316146128c7576040805162461bcd60e51b815260206004820152601e6024820152600080516020614450833981519152604482015290519081900360640190fd5b6129257f00000000000000000000000000000000000000000000000000000000000000008988888080602002602001604051908101604052809392919081815260200183836020028082843760009201919091525061304692505050565b9150868260008151811061293557fe5b602002602001015111156126bc5760405162461bcd60e51b81526004018080602001828103825260288152602001806145416028913960400191505060405180910390fd5b60008082428110156129c1576040805162461bcd60e51b81526020600482015260196024820152600080516020614430833981519152604482015290519081900360640190fd5b6129f0897f00000000000000000000000000000000000000000000000000000000000000008a8a8a308a611f85565b9093509150612a00898685613253565b7f00000000000000000000000000000000000000000000000000000000000000006001600160a01b0316632e1a7d4d836040518263ffffffff1660e01b815260040180828152602001915050600060405180830381600087803b158015612a6657600080fd5b505af1158015612a7a573d6000803e3d6000fd5b50505050612a8885836133a6565b50965096945050505050565b60008060008342811015612add576040805162461bcd60e51b81526020600482015260196024820152600080516020614430833981519152604482015290519081900360640190fd5b612b0b8a7f00000000000000000000000000000000000000000000000000000000000000008b348c8c613f1c565b90945092506000612b5d7f00000000000000000000000000000000000000000000000000000000000000008c7f0000000000000000000000000000000000000000000000000000000000000000613193565b9050612b6b8b338388613812565b7f00000000000000000000000000000000000000000000000000000000000000006001600160a01b031663d0e30db0856040518263ffffffff1660e01b81526004016000604051808303818588803b158015612bc657600080fd5b505af1158015612bda573d6000803e3d6000fd5b50505050507f00000000000000000000000000000000000000000000000000000000000000006001600160a01b031663a9059cbb82866040518363ffffffff1660e01b815260040180836001600160a01b0316815260200182815260200192505050602060405180830381600087803b158015612c5657600080fd5b505af1158015612c6a573d6000803e3d6000fd5b505050506040513d6020811015612c8057600080fd5b5051612c8857fe5b806001600160a01b0316636a627842886040518263ffffffff1660e01b815260040180826001600160a01b03168152602001915050602060405180830381600087803b158015612cd757600080fd5b505af1158015612ceb573d6000803e3d6000fd5b505050506040513d6020811015612d0157600080fd5b5051925034841015612d1957612d19338534036133a6565b505096509650969350505050565b60008060008342811015612d70576040805162461bcd60e51b81526020600482015260196024820152600080516020614430833981519152604482015290519081900360640190fd5b612d7e8c8c8c8c8c8c613f1c565b90945092506000612db07f00000000000000000000000000000000000000000000000000000000000000008e8e613193565b9050612dbe8d338388613812565b612dca8c338387613812565b806001600160a01b0316636a627842886040518263ffffffff1660e01b815260040180826001600160a01b03168152602001915050602060405180830381600087803b158015612e1957600080fd5b505af1158015612e2d573d6000803e3d6000fd5b505050506040513d6020811015612e4357600080fd5b5051949d939c50939a509198505050505050505050565b6000806000612eaa7f00000000000000000000000000000000000000000000000000000000000000008e7f0000000000000000000000000000000000000000000000000000000000000000613193565b9050600087612eb9578c612ebd565b6000195b6040805163d505accf60e01b815233600482015230602482015260448101839052606481018c905260ff8a16608482015260a4810189905260c4810188905290519192506001600160a01b0384169163d505accf9160e48082019260009290919082900301818387803b158015612f3357600080fd5b505af1158015612f47573d6000803e3d6000fd5b50505050612f598e8e8e8e8e8e61297a565b909f909e509c50505050505050505050505050565b6000808411612fae5760405162461bcd60e51b815260040180806020018281038252602c81526020018061434d602c913960400191505060405180910390fd5b600083118015612fbe5750600082115b612ff95760405162461bcd60e51b81526004018080602001828103825260298152602001806144eb6029913960400191505060405180910390fd5b6000613007856103e66141ad565b9050600061301582856141ad565b9050600061302f83613029886103e86141ad565b90614210565b905080828161303a57fe5b04979650505050505050565b606060028251101561309f576040805162461bcd60e51b815260206004820152601f60248201527f446f67655377617056324c6962726172793a20494e56414c49445f5041544800604482015290519081900360640190fd5b815167ffffffffffffffff811180156130b757600080fd5b506040519080825280602002602001820160405280156130e1578160200160208202803683370190505b50905082816001835103815181106130f557fe5b60209081029190910101528151600019015b801561318b576000806131448786600186038151811061312357fe5b602002602001015187868151811061313757fe5b602002602001015161425f565b9150915061316684848151811061315757fe5b60200260200101518383613cc0565b84600185038151811061317557fe5b6020908102919091010152505060001901613107565b509392505050565b60008060006131a28585613e3e565b604080516bffffffffffffffffffffffff19606094851b811660208084019190915293851b81166034830152825160288184030181526048830184528051908501206001600160f81b031960688401529a90941b9093166069840152607d8301989098527fbfc2d4e06b5c176871b6144c7de089666b9ec72c1d8ba86002bfc8ea119b2419609d808401919091528851808403909101815260bd909201909752805196019590952095945050505050565b604080516001600160a01b038481166024830152604480830185905283518084039091018152606490920183526020820180516001600160e01b031663a9059cbb60e01b1781529251825160009485949389169392918291908083835b602083106132cf5780518252601f1990920191602091820191016132b0565b6001836020036101000a0380198251168184511680821785525050505050509050019150506000604051808303816000865af19150503d8060008114613331576040519150601f19603f3d011682016040523d82523d6000602084013e613336565b606091505b5091509150818015613364575080511580613364575080806020019051602081101561336157600080fd5b50515b61339f5760405162461bcd60e51b815260040180806020018281038252602d815260200180614470602d913960400191505060405180910390fd5b5050505050565b604080516000808252602082019092526001600160a01b0384169083906040518082805190602001908083835b602083106133f25780518252601f1990920191602091820191016133d3565b6001836020036101000a03801982511681845116808217855250505050505090500191505060006040518083038185875af1925050503d8060008114613454576040519150601f19603f3d011682016040523d82523d6000602084013e613459565b606091505b50509050806134995760405162461bcd60e51b81526004018080602001828103825260348152602001806143d06034913960400191505060405180910390fd5b505050565b60005b60018351038110156136d5576000808483815181106134bc57fe5b60200260200101518584600101815181106134d357fe5b60200260200101519150915060006134eb8383613e3e565b50905060008785600101815181106134ff57fe5b60200260200101519050600080836001600160a01b0316866001600160a01b03161461352d57826000613531565b6000835b91509150600060028a510388106135485788613589565b6135897f0000000000000000000000000000000000000000000000000000000000000000878c8b6002018151811061357c57fe5b6020026020010151613193565b90506135b67f00000000000000000000000000000000000000000000000000000000000000008888613193565b6001600160a01b031663022c0d9f84848460006040519080825280601f01601f1916602001820160405280156135f3576020820181803683370190505b506040518563ffffffff1660e01b815260040180858152602001848152602001836001600160a01b0316815260200180602001828103825283818151815260200191508051906020019080838360005b8381101561365b578181015183820152602001613643565b50505050905090810190601f1680156136885780820380516001836020036101000a031916815260200191505b5095505050505050600060405180830381600087803b1580156136aa57600080fd5b505af11580156136be573d6000803e3d6000fd5b5050600190990198506134a1975050505050505050565b50505050565b6060600282511015613734576040805162461bcd60e51b815260206004820152601f60248201527f446f67655377617056324c6962726172793a20494e56414c49445f5041544800604482015290519081900360640190fd5b815167ffffffffffffffff8111801561374c57600080fd5b50604051908082528060200260200182016040528015613776578160200160208202803683370190505b509050828160008151811061378757fe5b60200260200101818152505060005b600183510381101561318b576000806137cc878685815181106137b557fe5b602002602001015187866001018151811061313757fe5b915091506137ee8484815181106137df57fe5b60200260200101518383612f6e565b8484600101815181106137fd57fe5b60209081029190910101525050600101613796565b604080516001600160a01b0385811660248301528481166044830152606480830185905283518084039091018152608490920183526020820180516001600160e01b03166323b872dd60e01b178152925182516000948594938a169392918291908083835b602083106138965780518252601f199092019160209182019101613877565b6001836020036101000a0380198251168184511680821785525050505050509050019150506000604051808303816000865af19150503d80600081146138f8576040519150601f19603f3d011682016040523d82523d6000602084013e6138fd565b606091505b509150915081801561392b57508051158061392b575080806020019051602081101561392857600080fd5b50515b6139665760405162461bcd60e51b815260040180806020018281038252603181526020018061439f6031913960400191505060405180910390fd5b505050505050565b60005b60018351038110156134995760008084838151811061398c57fe5b60200260200101518584600101815181106139a357fe5b60200260200101519150915060006139bb8383613e3e565b50905060006139eb7f00000000000000000000000000000000000000000000000000000000000000008585613193565b9050600080600080846001600160a01b0316630902f1ac6040518163ffffffff1660e01b815260040160606040518083038186803b158015613a2c57600080fd5b505afa158015613a40573d6000803e3d6000fd5b505050506040513d6060811015613a5657600080fd5b5080516020909101516001600160701b0391821693501690506000806001600160a01b038a811690891614613a8c578284613a8f565b83835b91509150613ae4828b6001600160a01b03166370a082318a6040518263ffffffff1660e01b815260040180826001600160a01b0316815260200191505060206040518083038186803b15801561185757600080fd5b9550613af1868383612f6e565b945050505050600080856001600160a01b0316886001600160a01b031614613b1b57826000613b1f565b6000835b91509150600060028c51038a10613b36578a613b6a565b613b6a7f0000000000000000000000000000000000000000000000000000000000000000898e8d6002018151811061357c57fe5b604080516000808252602082019283905263022c0d9f60e01b835260248201878152604483018790526001600160a01b038086166064850152608060848501908152845160a48601819052969750908c169563022c0d9f958a958a958a9591949193919260c486019290918190849084905b83811015613bf4578181015183820152602001613bdc565b50505050905090810190601f168015613c215780820380516001836020036101000a031916815260200191505b5095505050505050600060405180830381600087803b158015613c4357600080fd5b505af1158015613c57573d6000803e3d6000fd5b50506001909b019a506139719950505050505050505050565b80820382811115610cdc576040805162461bcd60e51b815260206004820152601560248201527464732d6d6174682d7375622d756e646572666c6f7760581b604482015290519081900360640190fd5b6000808411613d005760405162461bcd60e51b815260040180806020018281038252602d815260200180614514602d913960400191505060405180910390fd5b600083118015613d105750600082115b613d4b5760405162461bcd60e51b81526004018080602001828103825260298152602001806144eb6029913960400191505060405180910390fd5b6000613d636103e8613d5d86886141ad565b906141ad565b90506000613d776103e6613d5d8689613c70565b9050613d8e6001828481613d8757fe5b0490614210565b9695505050505050565b6000808411613dd85760405162461bcd60e51b81526004018080602001828103825260268152602001806143796026913960400191505060405180910390fd5b600083118015613de85750600082115b613e235760405162461bcd60e51b81526004018080602001828103825260298152602001806144eb6029913960400191505060405180910390fd5b82613e2e85846141ad565b81613e3557fe5b04949350505050565b600080826001600160a01b0316846001600160a01b03161415613e925760405162461bcd60e51b81526004018080602001828103825260268152602001806143276026913960400191505060405180910390fd5b826001600160a01b0316846001600160a01b031610613eb2578284613eb5565b83835b90925090506001600160a01b038216613f15576040805162461bcd60e51b815260206004820152601f60248201527f446f67655377617056324c6962726172793a205a45524f5f4144445245535300604482015290519081900360640190fd5b9250929050565b60008060006001600160a01b03167f00000000000000000000000000000000000000000000000000000000000000006001600160a01b031663e6a439058a8a6040518363ffffffff1660e01b815260040180836001600160a01b03168152602001826001600160a01b031681526020019250505060206040518083038186803b158015613fa857600080fd5b505afa158015613fbc573d6000803e3d6000fd5b505050506040513d6020811015613fd257600080fd5b50516001600160a01b03161415614090577f00000000000000000000000000000000000000000000000000000000000000006001600160a01b031663c9c6539689896040518363ffffffff1660e01b815260040180836001600160a01b03168152602001826001600160a01b0316815260200192505050602060405180830381600087803b15801561406357600080fd5b505af1158015614077573d6000803e3d6000fd5b505050506040513d602081101561408d57600080fd5b50505b6000806140be7f00000000000000000000000000000000000000000000000000000000000000008b8b61425f565b915091508160001480156140d0575080155b156140e0578793508692506141a0565b60006140ed898484613d98565b905087811161414057858110156141355760405162461bcd60e51b815260040180806020018281038252602781526020018061449d6027913960400191505060405180910390fd5b88945092508261419e565b600061414d898486613d98565b90508981111561415957fe5b878110156141985760405162461bcd60e51b81526004018080602001828103825260278152602001806144c46027913960400191505060405180910390fd5b94508793505b505b5050965096945050505050565b60008115806141c8575050808202828282816141c557fe5b04145b610cdc576040805162461bcd60e51b815260206004820152601460248201527364732d6d6174682d6d756c2d6f766572666c6f7760601b604482015290519081900360640190fd5b80820182811015610cdc576040805162461bcd60e51b815260206004820152601460248201527364732d6d6174682d6164642d6f766572666c6f7760601b604482015290519081900360640190fd5b600080600061426e8585613e3e565b50905060008061427f888888613193565b6001600160a01b0316630902f1ac6040518163ffffffff1660e01b815260040160606040518083038186803b1580156142b757600080fd5b505afa1580156142cb573d6000803e3d6000fd5b505050506040513d60608110156142e157600080fd5b5080516020909101516001600160701b0391821693501690506001600160a01b0387811690841614614314578082614317565b81815b9099909850965050505050505056fe446f67655377617056324c6962726172793a204944454e544943414c5f414444524553534553446f67655377617056324c6962726172793a20494e53554646494349454e545f494e5055545f414d4f554e54446f67655377617056324c6962726172793a20494e53554646494349454e545f414d4f554e545472616e7366657248656c7065723a3a7472616e7366657246726f6d3a207472616e7366657246726f6d206661696c65645472616e7366657248656c7065723a3a736166655472616e736665724554483a20455448207472616e73666572206661696c6564446f6765537761705632526f757465723a20494e53554646494349454e545f4f55545055545f414d4f554e54446f6765537761705632526f757465723a204558504952454400000000000000446f6765537761705632526f757465723a20494e56414c49445f5041544800005472616e7366657248656c7065723a3a736166655472616e736665723a207472616e73666572206661696c6564446f6765537761705632526f757465723a20494e53554646494349454e545f425f414d4f554e54446f6765537761705632526f757465723a20494e53554646494349454e545f415f414d4f554e54446f67655377617056324c6962726172793a20494e53554646494349454e545f4c4951554944495459446f67655377617056324c6962726172793a20494e53554646494349454e545f4f55545055545f414d4f554e54446f6765537761705632526f757465723a204558434553534956455f494e5055545f414d4f554e54a2646970667358221220aa6821edadbc2fbbdf1454b69fb2a14a9d240613fc9898d54f1e1875b1e45fb664736f6c63430007060033",
  "linkReferences": {},
  "deployedLinkReferences": {}
}